:100000000C942A000C9447000C9447000C94470071
:100010000C9447000C9447000C9447000C94470044
:100020000C9447000C9447000C9497060C94BE0661
:100030000C9447000C9447000C9447000C94470024
:100040000C9447000C9447000C9447000C94470014
:100050000C94470011241FBECFE5D8E0DEBFCDBF12
:1000600011E0A0E6B0E0E4E7F8E102C005900D92EF
:10007000A23BB107D9F711E0A2EBB1E001C01D929C
:10008000A63BB107E1F70E946A0B0C94380C0C9464
:100090000000EF92FF920F931F937B018C0120E0F1
:1000A00030E040E05FE40E94190388238CF0C8012F
:1000B000B70120E030E040E05FE40E94C1010E940F
:1000C000A7039B01AC01205030404040504806C07F
:1000D000C801B7010E94A7039B01AC01B901CA0185
:1000E0001F910F91FF90EF900895A0E0B0E0EBE733
:1000F000F0E00C94010CDC012B01FA019C91923090
:1001000008F439C1EB018881823008F433C194309E
:1001100069F4843009F02FC111969C91119789815F
:10012000981709F428C1A0E6B0E025C1843009F48D
:1001300021C18230A9F4923009F01DC19A01AD01AC
:1001400088E0EA010990AE01E90109929E0181501F
:10015000C1F7E201898111969C918923818308C1AD
:10016000923009F407C112962D903C901397EB0141
:100170008A819B811496AD90BD90CD90DC901797AD
:10018000EC80FD800E811F819101281B390BB90184
:1001900037FF04C066277727621B730B6032710537
:1001A0000CF061C0121613066CF537014801062EDB
:1001B00004C096948794779467940A94D2F721E0C8
:1001C00030E040E050E004C0220F331F441F551FB1
:1001D0006A95D2F721503040404050402E213F21B7
:1001E00040235123211531054105510521F021E01E
:1001F00030E040E050E079018A01E628F72808293C
:1002000019293CC0232BD1F1260E371E350146019A
:10021000062E04C096948794779467940A94D2F734
:1002200021E030E040E050E004C0220F331F441FC3
:10023000551F6A95D2F721503040404050402A2146
:100240003B214C215D21211531054105510521F04E
:1002500021E030E040E050E059016A01A628B728CB
:10026000C828D9280BC0821593052CF01C01AA249C
:10027000BB24650103C0EE24FF24870111969C91E5
:10028000D20111968C91981709F445C0992339F041
:10029000A80197012A193B094C095D0906C0A6016E
:1002A00095012E193F09400B510B57FD08C01182D3
:1002B0003382228224833583468357831DC081E0A5
:1002C00081833382228288279927DC01821B930B4A
:1002D000A40BB50B84839583A683B7830DC0220F2F
:1002E000331F441F551F24833583468357838281E0
:1002F000938101979383828324813581468157813D
:10030000DA01C9010197A109B1098F5F9F4FAF4F72
:10031000BF4328F30BC0918333822282EA0CFB1C7B
:100320000C1D1D1DE482F5820683178383E0808304
:10033000248135814681578157FF1AC0C901AA27F8
:1003400097FDA095BA2F81709070A070B0705695EF
:10035000479537952795822B932BA42BB52B848318
:100360009583A683B7838281938101969383828349
:10037000DF0101C0D201CD01CDB7DEB7E2E10C94BF
:100380001D0CA0E2B0E0E7ECF1E00C940D0C6983E9
:100390007A838B839C832D833E834F835887E9E048
:1003A000EE2EF12CEC0EFD1ECE010196B7010E943F
:1003B00098058E010F5E1F4FCE010596B8010E9471
:1003C00098058A8991E089278A8BC701B801AE0117
:1003D000475E5F4F0E9475000E94C304A096E6E04E
:1003E0000C94290CA0E2B0E0E8EFF1E00C940D0CC5
:1003F00069837A838B839C832D833E834F835887C5
:10040000F9E0EF2EF12CEC0EFD1ECE010196B701A6
:100410000E9498058E010F5E1F4FCE010596B80110
:100420000E949805C701B801AE01475E5F4F0E9468
:1004300075000E94C304A096E6E00C94290CA0E28B
:10044000B0E0E5E2F2E00C94010C69837A838B83DF
:100450009C832D833E834F835887CE010196BE0136
:10046000675F7F4F0E949805CE010596BE016F5EC3
:100470007F4F0E9498059985923088F08989823053
:10048000C8F0943019F4823051F404C0843029F457
:10049000923081F480E690E0C6C0923049F420E0CA
:1004A0009A858A89981321E02A87CE010996BBC0D4
:1004B000823049F420E09A858A89981321E02A8BBA
:1004C000CE014196B0C02D843E844F8458886D88FB
:1004D0007E888F88988CEE24FF248701AA24BB2471
:1004E000650140E050E060E070E0E0E0F0E0C10174
:1004F00081709070892BE9F0E60CF71C081D191D1E
:100500009A01AB012A0D3B1D4C1D5D1D80E090E062
:10051000A0E0B0E0E614F7040805190520F481E036
:1005200090E0A0E0B0E0BA01A901480F591F6A1F8E
:100530007B1FAA0CBB1CCC1CDD1C97FE08C081E0F5
:1005400090E0A0E0B0E0A82AB92ACA2ADB2A3196B6
:10055000E032F10549F0660C771C881C991C569412
:10056000479437942794C3CFFA85EA892B893C892D
:100570008B859C85280F391F2E5F3F4F17C0CA01FE
:1005800081709070892B61F016950795F794E79428
:1005900080E090E0A0E0B0E8E82AF92A0A2B1B2BC3
:1005A00076956795579547952F5F3F4F77FDE7CF36
:1005B0000CC0440F551F661F771F17FD4160EE0CDE
:1005C000FF1C001F111F21503040403090E05907A0
:1005D00090E0690790E4790760F32B8F3C8FDB0193
:1005E000CA018F779070A070B07080349105A1051A
:1005F000B10561F447FD0AC0E114F10401051105DC
:1006000029F0405C5F4F6F4F7F4F40781A8EFE1786
:1006100011F081E08A8F4D8F5E8F6F8F78A383E01A
:10062000898FCE0149960E94C304A096E2E10C9402
:100630001D0CA8E1B0E0EFE1F3E00C940D0C698330
:100640007A838B839C832D833E834F83588789E0F5
:10065000E82EF12CEC0EFD1ECE010196B7010E9492
:1006600098058E010F5E1F4FCE010596B8010E94BE
:1006700098058985823040F08989823028F0C70149
:10068000B8010E94100601C08FEF6896E6E00C9456
:10069000290CA8E0B0E0EFE4F3E00C940A0C9B0115
:1006A000AC0183E08983DA01C9018827B7FD83950E
:1006B0009927AA27BB27B82E2115310541055105D9
:1006C00019F482E089833AC08823A9F0203080E0C1
:1006D000380780E0480780E8580729F460E070E0B8
:1006E00080E09FEC30C0EE24FF248701E21AF30A79
:1006F000040B150B02C079018A018EE1C82ED12CA2
:10070000DC82CB82ED82FE820F831887C801B7019D
:100710000E94740401971816190684F4082E04C068
:10072000EE0CFF1C001F111F0A94D2F7ED82FE820F
:100730000F831887C81AD90ADC82CB82BA82CE010D
:1007400001960E94C3042896E9E00C94260CACE0C4
:10075000B0E0EDEAF3E00C94110C69837A838B83AB
:100760009C83CE010196BE016B5F7F4F0E9498056E
:100770008D81823061F1823050F1843021F48E819C
:10078000882351F12EC02F81388537FD20C06E811E
:100790002F3131051CF06623F9F023C08EE190E083
:1007A000821B930B29853A854B855C8504C0569541
:1007B0004795379527958A95D2F76623B1F05095DE
:1007C0004095309521953F4F4F4F5F4F0EC020E031
:1007D00030E040E050E009C02FEF3FEF4FEF5FE720
:1007E00004C020E030E040E050E8B901CA012C9696
:1007F000E2E00C942D0CA8E0B0E0E1E0F4E00C9411
:10080000090C7B018C01611571058105910519F4B5
:1008100082E0898360C083E089838EE1C82ED12C79
:10082000DC82CB82ED82FE820F831887C801B7017C
:100830000E947404FC013197F7FF3BC02227332745
:100840002E1B3F0B57016801022E04C0D694C7949B
:10085000B794A7940A94D2F740E050E060E070E0CB
:1008600081E090E0A0E0B0E004C0880F991FAA1FCB
:10087000BB1F2A95D2F70197A109B1098E219F21AB
:10088000A023B1230097A105B10521F041E050E07C
:1008900060E070E04A295B296C297D294D835E83E5
:1008A0006F8378878EE190E08E1B9F0B9C838B83F8
:1008B00012C0309781F00E2E04C0EE0CFF1C001FFA
:1008C000111F0A94D2F7ED82FE820F831887CE1A89
:1008D000DF0ADC82CB821A82CE0101960E94C30419
:1008E0002896EAE00C94250CEF92FF920F931F9349
:1008F0007B018C0180E0E81680E0F80681E00807C3
:1009000080E0180788F48FEFE816F104010511055F
:1009100031F028F088E090E0A0E0B0E017C080E07F
:1009200090E0A0E0B0E012C080E0E81680E0F806B9
:1009300080E0080781E0180728F088E190E0A0E057
:10094000B0E004C080E190E0A0E0B0E020E230E060
:1009500040E050E0281B390B4A0B5B0B04C0169596
:100960000795F794E7948A95D2F7F701E859FF4F76
:100970008081281B310941095109C9011F910F913B
:10098000FF90EF900895DF92EF92FF920F931F93E5
:10099000FC01E480F58006811781D180808182305E
:1009A00048F480E090E0A0E1B0E0E82AF92A0A2BC0
:1009B0001B2BA5C0843009F49FC0823021F4EE24A3
:1009C000FF24870105C0E114F1040105110519F4A4
:1009D000E0E0F0E096C0628173819FEF62387907B2
:1009E0000CF05BC022E83FEF261B370B2A313105A4
:1009F0002CF020E030E040E050E02AC0B801A70130
:100A0000022E04C076956795579547950A94D2F7BC
:100A100081E090E0A0E0B0E004C0880F991FAA1F19
:100A2000BB1F2A95D2F70197A109B1098E219F21F9
:100A3000A023B1230097A105B10521F081E090E04A
:100A4000A0E0B0E09A01AB01282B392B4A2B5B2B9D
:100A5000DA01C9018F779070A070B0708034910571
:100A6000A105B10539F427FF09C0205C3F4F4F4F66
:100A70005F4F04C0215C3F4F4F4F5F4FE0E0F0E01D
:100A80002030A0E03A07A0E04A07A0E45A0710F09F
:100A9000E1E0F0E079018A0127C06038710564F572
:100AA000FB01E158FF4FD801C7018F779070A0700C
:100AB000B07080349105A105B10539F4E7FE0DC091
:100AC00080E490E0A0E0B0E004C08FE390E0A0E01C
:100AD000B0E0E80EF91E0A1F1B1F17FF05C0169590
:100AE0000795F794E794319687E016950795F79464
:100AF000E7948A95D1F705C0EE24FF248701EFEF34
:100B0000F0E06E2F679566276795902F9F77D794B3
:100B1000DD24D7948E2F8695492F462B582F5D299B
:100B2000B701CA011F910F91FF90EF90DF900895D8
:100B3000FC01DB01408151812281622F6F7770E0DF
:100B4000221F2227221F9381892F880F822B282F73
:100B500030E0991F9927991F11969C9311972115A1
:100B60003105A9F5411551056105710511F482E0C2
:100B700037C082E89FEF13969C938E9312979A0149
:100B8000AB0167E0220F331F441F551F6A95D1F751
:100B900083E08C930DC0220F331F441F551F129604
:100BA0008D919C911397019713969C938E93129716
:100BB000203080E0380780E0480780E4580758F389
:100BC00014962D933D934D935C93179708952F3F63
:100BD000310579F4411551056105710519F484E079
:100BE0008C93089564FF03C081E08C9312C01C9223
:100BF00010C02F57304013963C932E93129783E0EA
:100C00008C9387E0440F551F661F771F8A95D1F795
:100C1000706414964D935D936D937C93179708952C
:100C20001F93DC01FB019C91923008F447C0808146
:100C3000823008F443C0943051F411961C918430F2
:100C400099F58181682F70E0611B71093FC0843084
:100C500021F0923031F48230B9F18181882389F119
:100C60002DC011961C9111978230F1F081811817D7
:100C7000D9F412962D913C9113978281938182171A
:100C8000930794F028173907BCF014968D919D9125
:100C90000D90BC91A02D2481358146815781281764
:100CA00039074A075B0718F4112341F00AC082177D
:100CB0009307A407B50740F4112319F061E070E031
:100CC00005C06FEF7FEF02C060E070E0CB011F91C5
:100CD000089583B7886083BF83B7806483BF83B779
:100CE0008F7E83BF83B7806283BF83B78E7F83BFCE
:100CF00083B7826083BF83B78B7F83BF089583B739
:100D00008E7F83BF83B78D7F83BF83B78B7F83BF86
:100D1000089582BF08958CBF08959093B301809386
:100D2000B20108959093B3018093B20108951F9288
:100D30000F920FB60F9211242F933F934F935F930F
:100D40006F937F938F939F93AF93BF93EF93FF9393
:100D5000E091B201F091B3010995FF91EF91BF913C
:100D6000AF919F918F917F916F915F914F913F9143
:100D70002F910F900FBE0F901F9018951F920F92FA
:100D80000FB60F9211242F933F934F935F936F935E
:100D90007F938F939F93AF93BF93EF93FF93E091D4
:100DA000B201F091B3010995FF91EF91BF91AF911D
:100DB0009F918F917F916F915F914F913F912F9173
:100DC0000F900FBE0F901F9018958FB780688FBF40
:100DD00008958FB78F778FBF08958130E9F0813004
:100DE00030F0823071F1833009F054C03FC08AB3D3
:100DF00021E030E0062E02C0220F331F0A94E2F7F2
:100E000020952823842F90E002C0880F991F6A95AF
:100E1000E2F7282B2ABB089587B321E030E0062EA5
:100E200002C0220F331F0A94E2F720952823842F53
:100E300090E002C0880F991F6A95E2F7282B27BB24
:100E4000089584B321E030E0062E02C0220F331F44
:100E50000A94E2F720952823842F90E002C0880F9F
:100E6000991F6A95E2F7282B24BB089581B321E0EE
:100E700030E0062E02C0220F331F0A94E2F72095BD
:100E80002823842F90E002C0880F991F6A95E2F70B
:100E9000282B21BB08958130E9F0813030F0823079
:100EA00071F1833009F054C03FC08BB321E030E0D2
:100EB000062E02C0220F331F0A94E2F72095282342
:100EC000842F90E002C0880F991F6A95E2F7282BC3
:100ED0002BBB089588B321E030E0062E02C0220F1C
:100EE000331F0A94E2F720952823842F90E002C054
:100EF000880F991F6A95E2F7282B28BB089585B3C0
:100F000021E030E0062E02C0220F331F0A94E2F7E0
:100F100020952823842F90E002C0880F991F6A959E
:100F2000E2F7282B25BB089582B321E030E0062E9E
:100F300002C0220F331F0A94E2F720952823842F42
:100F400090E002C0880F991F6A95E2F7282B22BB18
:100F50000895813049F0813028F0823039F08330B3
:100F6000B1F40DC089B303C086B301C083B390E070
:100F700002C0959587956A95E2F78170089580B3D0
:100F800090E002C0959587956A95E2F78170089583
:100F9000662389F4813049F0813028F0823039F0BD
:100FA0008330F9F406C01ABA089517BA089514BA2E
:100FB000089511BA08956130A1F4813051F0813063
:100FC00028F0823049F0833061F409C08FEF8ABB8A
:100FD00008958FEF87BB08958FEF84BB08958FEF3F
:100FE00081BB0895813049F0813028F0823039F09A
:100FF000833041F406C06BBB089568BB089565BBA0
:10100000089562BB089508953F9A3E983D98379A97
:1010100086B1876086B9089597B1907E982B97B96D
:10102000369A349BFECF349A24B135B1C901089564
:1010300027B1207E262B27B9339A9093B501809350
:10104000B401369A0895339A08958330C9F08430F4
:1010500028F4813079F0823080F409C08530B1F015
:10106000853088F08630A9F08730F1F418C080E030
:1010700060E011C080E061E00EC080E062E00BC083
:1010800080E063E008C080E064E005C080E065E0E7
:1010900002C080E066E040E00E944B07089580E0D7
:1010A00067E040E00E944B0708958330C9F0843028
:1010B00028F4813079F0823080F409C08530B1F0B5
:1010C000853088F08630A9F08730F1F418C080E0D0
:1010D00060E011C080E061E00EC080E062E00BC023
:1010E00080E063E008C080E064E005C080E065E087
:1010F00002C080E066E041E00E944B07089580E076
:1011000067E041E00E944B0708958330C9F08430C6
:1011100028F4813079F0823080F409C08530B1F054
:10112000853088F08630A9F08730F1F418C080E06F
:1011300060E011C080E061E00EC080E062E00BC0C2
:1011400080E063E008C080E064E005C080E065E026
:1011500002C080E066E041E00E94ED06089580E074
:1011600067E041E00E94ED06089581E062E041E021
:101170000E944B0781E061E040E00E944B0781E064
:1011800060E040E00E944B0780E061E00E94F207CF
:1011900081E062E040E00E944B0780EA9FE0019717
:1011A000F1F708951F93182F81E062E041E00E945B
:1011B0004B0781E060E041E00E944B0781E061E085
:1011C00040E00E944B0780E0612F0E94F20781E01F
:1011D00062E040E00E944B0780EE9EE20197F1F74B
:1011E00081E062E041E00E944B0780EF95E50197C6
:1011F000F1F71F9108958F929F92AF92BF92CF9275
:10120000DF92EF92FF920F93DF93CF93CDB7DEB7CC
:101210002A970FB6F894DEBF0FBECDBF6B017C01DD
:10122000611571058105910521F480E30E94D208C2
:101230002FC000E04E010894811C911C5401A00EA7
:10124000B11CC701B6012AE030E040E050E00E9446
:10125000DF0B605DF5016083C701B6012AE030E075
:1012600040E050E00E94DF0BC901DA016C017D0112
:101270000F5FC114D104E104F10401F707C0FE01BE
:10128000E00FF11D80810E94D20801500023B9F7C0
:101290002A960FB6F894DEBF0FBECDBFCF91DF9177
:1012A0000F91FF90EF90DF90CF90BF90AF909F9005
:1012B0008F900895EF92FF921F93CF93DF93EC01ED
:1012C00010E080EEE82E8EE2F82E06C00E94D208D2
:1012D0001F5FC7010197F1F7FE01E10FF11D80814A
:1012E0008823A1F7DF91CF911F91FF90EF90089590
:1012F0001F93182F81E062E041E00E944B0781E0DC
:1013000061E040E00E944B0781E060E040E00E9425
:101310004B0780E0612F0E94F20781E062E040E02D
:101320000E944B0780EA9FE00197F1F71F91089513
:10133000882319F0813009F4605C862F80580E9460
:10134000780908950F931F9388E30E94780900EDB0
:1013500017E0C8010197F1F78CE00E947809C801F5
:101360000197F1F781E00E94780980EA9FE00197F8
:10137000F1F786E00E9478091F910F91089580E0AF
:1013800061E00E94C80781E061E041E00E94ED0653
:1013900081E060E041E00E94ED0681E062E041E032
:1013A0000E94ED060E94A20908956F927F928F928B
:1013B0009F92BF92CF92DF92EF92FF920F931F9373
:1013C000DF93CF93CDB7DEB7C054D0400FB6F894BB
:1013D000DEBF0FBECDBFDE011196E8E6F1E080E48E
:1013E00001900D928150E1F734E1C32EEE24FF24E9
:1013F0003E010894611C711C20E4822E2CE9922E7F
:1014000094E0B92EBE0C83E06B2D40E00E944B07A8
:101410008701000F111F000F111F060D171DDD247E
:1014200083E06D2D0E94A907882359F4F801C0803C
:1014300083E06D2D0E94A9078823D1F3C401019791
:10144000F1F7D394005F1F4FF4E0DF1649F783E014
:101450006B2D41E00E944B070894E11CF11C84E0D5
:10146000E816F10469F68C2DC05CDF4F0FB6F894D6
:10147000DEBF0FBECDBFCF91DF911F910F91FF90C7
:10148000EF90DF90CF90BF909F908F907F906F9064
:1014900008951F9310E083E0612F40E00E94ED0665
:1014A00083E0612F41E00E944B071F5F143099F7E2
:1014B00083E0612F41E00E94ED0683E0612F41E06F
:1014C0000E944B071F5F183099F71F9108958330D2
:1014D000C9F0843028F4813079F0823080F409C07A
:1014E0008530B1F0853088F08630A9F08730D1F4AE
:1014F00015C083E060E014C083E061E011C080E0CB
:1015000062E00EC080E063E00BC080E064E008C0F1
:1015100080E065E005C080E066E002C080E067E052
:101520000E94A907E0E4FCE93197F1F790E08823F5
:1015300009F491E0892F0895833011F1843028F463
:10154000813091F08230B0F409C0853029F18530C6
:10155000E8F0863039F1873089F52AC083E060E011
:1015600040E00E94ED063CC083E061E040E00E9464
:10157000ED0639C080E062E040E00E94ED0636C032
:1015800080E063E040E00E94ED0633C080E064E06C
:1015900040E00E94ED0630C080E065E040E00E943F
:1015A000ED062DC080E066E040E00E94ED062AC016
:1015B00080E067E040E00E94ED062AC08330C9F079
:1015C000843028F4813079F0823080F409C085308D
:1015D000B1F0853088F08630A9F08730F1F418C07A
:1015E00083E060E011C083E061E00EC080E062E073
:1015F0000BC080E063E008C080E064E005C080E0EC
:1016000065E002C080E066E041E00E944B0708957B
:1016100080E067E041E00E944B070895882319F0BD
:10162000813091F409C0E62FF0E0E855FE4F83E0E9
:1016300060810E94F2070895E62FF0E0E855FE4F22
:1016400081E060810E94F2070895882319F08130BB
:1016500061F406C080E060E041E00E944B0708951D
:1016600080E061E041E00E944B070895882319F073
:10167000813061F406C080E060E040E00E944B07EA
:10168000089580E061E040E00E944B0708958823C0
:1016900019F08130F1F40FC083E061E00E94C807C7
:1016A00080E060E041E00E94ED0680E060E041E023
:1016B0000E944B07089581E061E00E94C80780E026
:1016C00061E041E00E94ED0680E061E041E00E94BF
:1016D0004B070895DF92EF92FF920F931F93CF93E2
:1016E000DF930E94E50681E063E041E00E94ED06A1
:1016F00080E00E949C0A81E00E949C0A0E94BF092F
:101700000E946906DD2480E00E94670A8130D1F4DE
:10171000D394DD2DC0E0BE0180E090E00E94FB0389
:101720002AE037ED43E25CE30E941F020E94490079
:101730007B018C01862F0E948B06B70180E090E030
:101740000E94FB0881E00E94670A8130E1F66D2D5E
:1017500070E0882777FD8095982F0E94490320E04C
:1017600030E040E05FE30E94C1010E9449009B011C
:10177000AC01D62E80E0922F64E670E00E94CB0B85
:101780007B01862F0E948B0600E010E0C801B701A4
:101790000E94FB08B8CFAA1BBB1B51E107C0AA1FC0
:1017A000BB1FA617B70710F0A61BB70B881F991F02
:1017B0005A95A9F780959095BC01CD010895A1E2B5
:1017C0001A2EAA1BBB1BFD010DC0AA1FBB1FEE1FBB
:1017D000FF1FA217B307E407F50720F0A21BB30B06
:1017E000E40BF50B661F771F881F991F1A9469F782
:1017F00060957095809590959B01AC01BD01CF01DE
:1018000008952F923F924F925F926F927F928F92A4
:101810009F92AF92BF92CF92DF92EF92FF920F937F
:101820001F93CF93DF93CDB7DEB7CA1BDB0B0FB689
:10183000F894DEBF0FBECDBF09942A883988488846
:101840005F846E847D848C849B84AA84B984C884DC
:10185000DF80EE80FD800C811B81AA81B981CE0FD3
:10186000D11D0FB6F894DEBF0FBECDBFED010895B8
:04187000F894FFCF1A
:101874000000000000000000000102020303030353
:10188400040404040404040405050505050505050C
:1018940005050505050505050606060606060606EC
:1018A40006060606060606060606060606060606D4
:1018B40006060606060606060707070707070707BC
:1018C40007070707070707070707070707070707A4
:1018D4000707070707070707070707070707070794
:1018E4000707070707070707070707070707070784
:1018F400070707070707070708080808080808086C
:101904000808080808080808080808080808080853
:101914000808080808080808080808080808080843
:101924000808080808080808080808080808080833
:101934000808080808080808080808080808080823
:101944000808080808080808080808080808080813
:101954000808080808080808080808080808080803
:1019640008080808080808080808080808080808F3
:101974000808080808080808010000000200000020
:101984000300000004000000050000000600000041
:101994000700000008000000090000000A00000021
:1019A4000B0000000C0000000D0000000E00000001
:1019B4000F000000000000003F065B4F666D7D07CE
:0219C4007F6F33
:00000001FF
