:100000000C942A000C9447000C9447000C94470071
:100010000C9447000C9447000C9447000C94470044
:100020000C9447000C9447000C9447000C94470034
:100030000C9447000C9447000C9447000C94470024
:100040000C9447000C9447000C9447000C94470014
:100050000C94470011241FBECFE5D8E0DEBFCDBF12
:1000600010E0A0E6B0E0EEE1F5E202C005900D92EE
:10007000A437B107D9F710E0A4E7B0E001C01D92A2
:10008000A637B107E1F70E94F6110C948D120C947B
:100090000000EF92FF920F931F937B018C0120E0F1
:1000A00030E040E05FE40E94490388238CF0C801FF
:1000B000B70120E030E040E05FE40E94C1010E940F
:1000C000A9039B01AC01205030404040504806C07D
:1000D000C801B7010E94A9039B01AC01B901CA0183
:1000E0001F910F91FF90EF900895A0E0B0E0EBE733
:1000F000F0E00C945612DC012B01FA019C91923035
:1001000008F439C1EB018881823008F433C194309E
:1001100069F4843009F02FC111969C91119789815F
:10012000981709F428C1ACE6B0E025C1843009F481
:1001300021C18230A9F4923009F01DC19A01AD01AC
:1001400088E0EA010990AE01E90109929E0181501F
:10015000C1F7E201898111969C918923818308C1AD
:10016000923009F407C112962D903C901397EB0141
:100170008A819B811496AD90BD90CD90DC901797AD
:10018000EC80FD800E811F819101281B390BB90184
:1001900037FF04C066277727621B730B6032710537
:1001A0000CF061C0121613066CF537014801062EDB
:1001B00004C096948794779467940A94D2F721E0C8
:1001C00030E040E050E004C0220F331F441F551FB1
:1001D0006A95D2F721503040404050402E213F21B7
:1001E00040235123211531054105510521F021E01E
:1001F00030E040E050E079018A01E628F72808293C
:1002000019293CC0232BD1F1260E371E350146019A
:10021000062E04C096948794779467940A94D2F734
:1002200021E030E040E050E004C0220F331F441FC3
:10023000551F6A95D2F721503040404050402A2146
:100240003B214C215D21211531054105510521F04E
:1002500021E030E040E050E059016A01A628B728CB
:10026000C828D9280BC0821593052CF01C01AA249C
:10027000BB24650103C0EE24FF24870111969C91E5
:10028000D20111968C91981709F445C0992339F041
:10029000A80197012A193B094C095D0906C0A6016E
:1002A00095012E193F09400B510B57FD08C01182D3
:1002B0003382228224833583468357831DC081E0A5
:1002C00081833382228288279927DC01821B930B4A
:1002D000A40BB50B84839583A683B7830DC0220F2F
:1002E000331F441F551F24833583468357838281E0
:1002F000938101979383828324813581468157813D
:10030000DA01C9010197A109B1098F5F9F4FAF4F72
:10031000BF4328F30BC0918333822282EA0CFB1C7B
:100320000C1D1D1DE482F5820683178383E0808304
:10033000248135814681578157FF1AC0C901AA27F8
:1003400097FDA095BA2F81709070A070B0705695EF
:10035000479537952795822B932BA42BB52B848318
:100360009583A683B7838281938101969383828349
:10037000DF0101C0D201CD01CDB7DEB7E2E10C94BF
:100380007212A0E2B0E0E7ECF1E00C946212698333
:100390007A838B839C832D833E834F835887E9E048
:1003A000EE2EF12CEC0EFD1ECE010196B7010E943F
:1003B000D2048E010F5E1F4FCE010596B8010E9438
:1003C000D2048A8991E089278A8BC701B801AE01DE
:1003D000475E5F4F0E9475000E94FD03A096E6E015
:1003E0000C947E12A0E2B0E0E8EFF1E00C9462120F
:1003F00069837A838B839C832D833E834F835887C5
:10040000F9E0EF2EF12CEC0EFD1ECE010196B701A6
:100410000E94D2048E010F5E1F4FCE010596B801D7
:100420000E94D204C701B801AE01475E5F4F0E942F
:1004300075000E94FD03A096E6E00C947E12A0E2F7
:10044000B0E0E5E2F2E00C94561269837A838B8384
:100450009C832D833E834F835887CE010196BE0136
:10046000675F7F4F0E94D204CE010596BE016F5E8A
:100470007F4F0E94D2049985923088F0898982301A
:10048000C8F0943019F4823051F404C0843029F457
:10049000923081F48CE690E0C6C0923049F420E0BE
:1004A0009A858A89981321E02A87CE010996BBC0D4
:1004B000823049F420E09A858A89981321E02A8BBA
:1004C000CE014196B0C02D843E844F8458886D88FB
:1004D0007E888F88988CEE24FF248701AA24BB2471
:1004E000650140E050E060E070E0E0E0F0E0C10174
:1004F00081709070892BE9F0E60CF71C081D191D1E
:100500009A01AB012A0D3B1D4C1D5D1D80E090E062
:10051000A0E0B0E0E614F7040805190520F481E036
:1005200090E0A0E0B0E0BA01A901480F591F6A1F8E
:100530007B1FAA0CBB1CCC1CDD1C97FE08C081E0F5
:1005400090E0A0E0B0E0A82AB92ACA2ADB2A3196B6
:10055000E032F10549F0660C771C881C991C569412
:10056000479437942794C3CFFA85EA892B893C892D
:100570008B859C85280F391F2E5F3F4F17C0CA01FE
:1005800081709070892B61F016950795F794E79428
:1005900080E090E0A0E0B0E8E82AF92A0A2B1B2BC3
:1005A00076956795579547952F5F3F4F77FDE7CF36
:1005B0000CC0440F551F661F771F17FD4160EE0CDE
:1005C000FF1C001F111F21503040403090E05907A0
:1005D00090E0690790E4790760F32B8F3C8FDB0193
:1005E000CA018F779070A070B07080349105A1051A
:1005F000B10561F447FD0AC0E114F10401051105DC
:1006000029F0405C5F4F6F4F7F4F40781A8EFE1786
:1006100011F081E08A8F4D8F5E8F6F8F78A383E01A
:10062000898FCE0149960E94FD03A096E2E10C94C9
:100630007212A8E1B0E0EFE1F3E00C94621269837A
:100640007A838B839C832D833E834F83588789E0F5
:10065000E82EF12CEC0EFD1ECE010196B7010E9492
:10066000D2048E010F5E1F4FCE010596B8010E9485
:10067000D2048985823040F08989823028F0C70110
:10068000B8010E944A0501C08FEF6896E6E00C941D
:100690007E12A8E1B0E0EFE4F3E00C94621269830B
:1006A0007A838B839C832D833E834F83588789E095
:1006B000E82EF12CEC0EFD1ECE010196B7010E9432
:1006C000D2048E010F5E1F4FCE010596B8010E9425
:1006D000D2048985823040F08989823028F0C701B0
:1006E000B8010E944A0501C08FEF6896E6E00C94BD
:1006F0007E12A8E1B0E0EFE7F3E00C9462126983A8
:100700007A838B839C832D833E834F83588789E034
:10071000E82EF12CEC0EFD1ECE010196B7010E94D1
:10072000D2048E010F5E1F4FCE010596B8010E94C4
:10073000D2048985823040F08989823028F0C7014F
:10074000B8010E944A0501C081E06896E6E00C9479
:100750007E12ACE0B0E0EFEAF3E00C94661269833D
:100760007A838B839C83CE010196BE016B5F7F4FA2
:100770000E94D2048D81823061F1823050F1843048
:1007800021F48E81882351F12EC02F81388537FDC9
:1007900020C06E812F3131051CF06623F9F023C093
:1007A0008EE190E0821B930B29853A854B855C8511
:1007B00004C056954795379527958A95D2F76623B5
:1007C000B1F050954095309521953F4F4F4F5F4F79
:1007D0000EC020E030E040E050E009C02FEF3FEFD6
:1007E0004FEF5FE704C020E030E040E050E8B9019F
:1007F000CA012C96E2E00C948212DF92EF92FF92F3
:100800000F931F93FC01E480F58006811781D1804E
:100810008081823048F480E090E0A0E1B0E0E82AF6
:10082000F92A0A2B1B2BA5C0843009F49FC0823003
:1008300021F4EE24FF24870105C0E114F104010531
:10084000110519F4E0E0F0E096C0628173819FEF3A
:10085000623879070CF05BC022E83FEF261B370BAC
:100860002A3131052CF020E030E040E050E02AC091
:10087000B801A701022E04C0769567955795479554
:100880000A94D2F781E090E0A0E0B0E004C0880FC5
:10089000991FAA1FBB1F2A95D2F70197A109B10979
:1008A0008E219F21A023B1230097A105B10521F03E
:1008B00081E090E0A0E0B0E09A01AB01282B392B59
:1008C0004A2B5B2BDA01C9018F779070A070B07052
:1008D00080349105A105B10539F427FF09C0205CDA
:1008E0003F4F4F4F5F4F04C0215C3F4F4F4F5F4F13
:1008F000E0E0F0E02030A0E03A07A0E04A07A0E402
:100900005A0710F0E1E0F0E079018A0127C0603871
:10091000710564F5FB01E158FF4FD801C7018F77DE
:100920009070A070B07080349105A105B10539F4C4
:10093000E7FE0DC080E490E0A0E0B0E004C08FE3EB
:1009400090E0A0E0B0E0E80EF91E0A1F1B1F17FFA1
:1009500005C016950795F794E794319687E01695AC
:100960000795F794E7948A95D1F705C0EE24FF2404
:100970008701EFEFF0E06E2F679566276795902F60
:100980009F77D794DD24D7948E2F8695492F462BB9
:10099000582F5D29B701CA011F910F91FF90EF9069
:1009A000DF900895FC01DB01408151812281622F9B
:1009B0006F7770E0221F2227221F9381892F880FD3
:1009C000822B282F30E0991F9927991F11969C930D
:1009D000119721153105A9F54115510561057105DD
:1009E00011F482E037C082E89FEF13969C938E93B8
:1009F00012979A01AB0167E0220F331F441F551F66
:100A00006A95D1F783E08C930DC0220F331F441FEA
:100A1000551F12968D919C911397019713969C9355
:100A20008E931297203080E0380780E0480780E4FA
:100A3000580758F314962D933D934D935C93179755
:100A400008952F3F310579F4411551056105710570
:100A500019F484E08C93089564FF03C081E08C93C3
:100A600012C01C9210C02F57304013963C932E9307
:100A7000129783E08C9387E0440F551F661F771F02
:100A80008A95D1F7706414964D935D936D937C9322
:100A9000179708951F93DC01FB019C91923008F495
:100AA00047C08081823008F443C0943051F41196DD
:100AB0001C91843099F58181682F70E0611B710968
:100AC0003FC0843021F0923031F48230B9F181811D
:100AD000882389F12DC011961C9111978230F1F075
:100AE00081811817D9F412962D913C911397828128
:100AF00093818217930794F028173907BCF0149656
:100B00008D919D910D90BC91A02D248135814681C0
:100B10005781281739074A075B0718F4112341F05A
:100B20000AC082179307A407B50740F4112319F0F0
:100B300061E070E005C06FEF7FEF02C060E070E041
:100B4000CB011F910895DF93CF9300D000D00F9277
:100B5000CDB7DEB789836A834B838981282F30E044
:100B60003D832C836C817D8161307105D1F18C8155
:100B70009D818230910534F42C813D812115310510
:100B800071F094C06C817D816230710509F44BC0B5
:100B90008C819D818330910509F467C087C0AAE3E9
:100BA000B0E0EAE3F0E08081482F8A81282F30E02E
:100BB00081E090E002C0880F991F2A95E2F78095A6
:100BC00048238B81282F30E08A81882F90E0B9015B
:100BD00002C0660F771F8A95E2F7CB01842B8C93B6
:100BE00065C0A7E3B0E0E7E3F0E08081482F8A81A9
:100BF000282F30E081E090E002C0880F991F2A95ED
:100C0000E2F7809548238B81282F30E08A81882F56
:100C100090E0B90102C0660F771F8A95E2F7CB0119
:100C2000842B8C9343C0A4E3B0E0E4E3F0E0808144
:100C3000482F8A81282F30E081E090E002C0880FA1
:100C4000991F2A95E2F7809548238B81282F30E061
:100C50008A81882F90E0B90102C0660F771F8A95BC
:100C6000E2F7CB01842B8C9321C0A1E3B0E0E1E358
:100C7000F0E08081482F8A81282F30E081E090E0E9
:100C800002C0880F991F2A95E2F7809548238B812F
:100C9000282F30E08A81882F90E0B90102C0660FCA
:100CA000771F8A95E2F7CB01842B8C930F900F90DE
:100CB0000F900F900F90CF91DF910895DF93CF9316
:100CC00000D000D00F92CDB7DEB789836A834B8303
:100CD0008981282F30E03D832C836C817D816130B8
:100CE0007105D1F18C819D818230910534F42C8184
:100CF0003D812115310571F094C06C817D81623098
:100D0000710509F44BC08C819D818330910509F4F4
:100D100067C087C0ABE3B0E0EBE3F0E08081482F31
:100D20008A81282F30E081E090E002C0880F991F6F
:100D30002A95E2F7809548238B81282F30E08A811D
:100D4000882F90E0B90102C0660F771F8A95E2F7FD
:100D5000CB01842B8C9365C0A8E3B0E0E8E3F0E01E
:100D60008081482F8A81282F30E081E090E002C006
:100D7000880F991F2A95E2F7809548238B81282FA9
:100D800030E08A81882F90E0B90102C0660F771F9A
:100D90008A95E2F7CB01842B8C9343C0A5E3B0E0A6
:100DA000E5E3F0E08081482F8A81282F30E081E060
:100DB00090E002C0880F991F2A95E2F7809548239A
:100DC0008B81282F30E08A81882F90E0B90102C002
:100DD000660F771F8A95E2F7CB01842B8C9321C095
:100DE000A2E3B0E0E2E3F0E08081482F8A81282F7F
:100DF00030E081E090E002C0880F991F2A95E2F769
:100E0000809548238B81282F30E08A81882F90E0BD
:100E1000B90102C0660F771F8A95E2F7CB01842BD8
:100E20008C930F900F900F900F900F90CF91DF91B8
:100E30000895DF93CF9300D000D00F92CDB7DEB7E7
:100E40008A836B838A81282F30E03D832C834C81F9
:100E50005D814130510541F18C819D818230910548
:100E600034F42C813D812115310561F052C04C8153
:100E70005D814230510551F18C819D818330910516
:100E8000B9F147C0E9E3F0E08081282F30E08B81A1
:100E9000882F90E0A90102C0559547958A95E2F701
:100EA000CA018170898335C0E6E3F0E08081282F94
:100EB00030E08B81882F90E0A90102C055954795BD
:100EC0008A95E2F7CA018170898323C0E3E3F0E0E9
:100ED0008081282F30E08B81882F90E0A90102C00B
:100EE000559547958A95E2F7CA018170898311C0AB
:100EF000E0E3F0E08081282F30E08B81882F90E0C4
:100F0000A90102C0559547958A95E2F7CA018170FB
:100F1000898389810F900F900F900F900F90CF9140
:100F2000DF910895DF93CF9300D000D000D0CDB7EC
:100F3000DEB789836A838A81882379F58981282F9E
:100F400030E03E832D838D819E8181309105C9F0F3
:100F50002D813E81223031052CF48D819E810097B8
:100F600061F050C02D813E812230310571F08D81BC
:100F70009E818330910569F045C0EAE3F0E010827C
:100F800041C0E7E3F0E010823DC0E4E3F0E010820E
:100F900039C0E1E3F0E0108235C08A81813091F5FB
:100FA0008981282F30E03C832B838B819C81813089
:100FB0009105D1F02B813C81223031052CF48B81BD
:100FC0009C81009761F01EC02B813C81223031054D
:100FD00081F08B819C818330910581F013C0EAE31D
:100FE000F0E08FEF80830EC0E7E3F0E08FEF8083C7
:100FF00009C0E4E3F0E08FEF808304C0E1E3F0E0B8
:101000008FEF808326960FB6F894DEBF0FBECDBF5C
:10101000CF91DF910895DF93CF9300D000D0CDB76B
:10102000DEB789836A838981282F30E03C832B8354
:101030008B819C8181309105D1F02B813C812230C4
:1010400031052CF48B819C81009761F01EC02B81AF
:101050003C812230310581F08B819C818330910568
:1010600081F013C0EBE3F0E08A8180830EC0E8E3F7
:10107000F0E08A81808309C0E5E3F0E08A81808323
:1010800004C0E2E3F0E08A8180830F900F900F901C
:101090000F90CF91DF910895DF93CF9300D0CDB71C
:1010A000DEB789836A838A81282F30E081E090E06F
:1010B000022E02C0880F991F0A94E2F7982F8981A7
:1010C000892789830F900F90CF91DF910895DF9347
:1010D000CF93CDB7DEB7A7E2B0E0E7E2F0E08081E2
:1010E00080688C93A7E2B0E0E7E2F0E080818F7B3C
:1010F0008C93A7E2B0E0E7E2F0E080818F7D8C93F3
:10110000A6E2B0E0E6E2F0E0808180688C93A6E29F
:10111000B0E0E6E2F0E0808187608C93CF91DF91D0
:101120000895DF93CF930F92CDB7DEB78983A7E2FF
:10113000B0E0E7E2F0E08081982F907E8981892BF2
:101140008C93A6E2B0E0E6E2F0E0808180648C93CC
:10115000E6E2F0E0808182958F70882F90E08170C8
:1011600090700097A9F3A6E2B0E0E6E2F0E080819B
:1011700080618C93E4E2F0E0808191810F90CF91C7
:10118000DF910895DF93CF9300D00F92CDB7DEB7F4
:101190009A8389836B83A7E2B0E0E7E2F0E0808185
:1011A000982F907E8B81892B8C93A6E2B0E0E6E2AB
:1011B000F0E0808188608C9389819A81909375009A
:1011C00080937400A6E2B0E0E6E2F0E08081806403
:1011D0008C930F900F900F90CF91DF910895DF9334
:1011E000CF93CDB7DEB7A6E2B0E0E6E2F0E08081D3
:1011F00088608C93CF91DF910895DF93CF93CDB723
:10120000DEB7E9E2F0E083E38083ABE2B0E0EBE25B
:10121000F0E080818D7F8C93AAE2B0E0EAE2F0E01A
:10122000808180618C93AAE2B0E0EAE2F0E0808104
:1012300088608C93E0E4F0E086E88083CF91DF91D2
:101240000895DF93CF9300D0CDB7DEB78A83EBE26A
:10125000F0E080818295869587708170898389818D
:101260008823E9F3ECE2F0E08A8180830F900F900D
:10127000CF91DF910895DF93CF9300D0CDB7DEB744
:10128000EBE2F0E08081881F8827881F8A838A81AB
:101290008823E9F3ECE2F0E08081898389810F9073
:1012A0000F90CF91DF910895DF93CF9300D00F92ED
:1012B000CDB7DEB79B838A8319820EC08981282F20
:1012C00030E08A819B81FC01E20FF31F80810E9444
:1012D000210989818F5F89838981282F30E08A8164
:1012E0009B81FC01E20FF31F8081882339F780E0A6
:1012F0000E9421090F900F900F90CF91DF910895D8
:101300000F931F93DF93CF9300D00F92CDB7DEB72B
:101310009B838A8319828981282F30E08A819B816F
:101320008C01020F131F0E943B09F80180830FC03C
:101330008981282F30E08A819B818C01020F131F45
:101340000E943B09F801808389818F5F89838981AD
:10135000282F30E08A819B81FC01E20FF31F8081FE
:10136000882331F78981282F30E08A819B81FC0115
:10137000E20FF31F10820F900F900F90CF91DF912B
:101380001F910F910895DF93CF9300D00F92CDB7A7
:10139000DEB789838981282F30E03B832A838A81C5
:1013A0009B8183309105D9F12A813B81243031051D
:1013B0007CF48A819B818130910529F12A813B81CE
:1013C0002230310534F58A819B810097B1F044C009
:1013D0002A813B812530310571F18A819B818530DD
:1013E00091051CF12A813B812630310551F18A811A
:1013F0009B818730910559F12FC080E060E041E08A
:101400000E94A30529C080E061E041E00E94A3059D
:1014100023C080E062E041E00E94A3051DC080E09F
:1014200063E041E00E94A30517C080E064E041E072
:101430000E94A30511C080E065E041E00E94A30581
:101440000BC080E066E041E00E94A30505C080E09B
:1014500067E041E00E94A3050F900F900F90CF919D
:10146000DF910895DF93CF9300D00F92CDB7DEB711
:1014700089838981282F30E03B832A838A819B815D
:1014800083309105D9F12A813B81243031057CF4E8
:101490008A819B818130910529F12A813B8122300B
:1014A000310534F58A819B810097B1F044C02A81CF
:1014B0003B812530310571F18A819B818530910511
:1014C0001CF12A813B812630310551F18A819B81B3
:1014D0008730910559F12FC080E060E041E00E9423
:1014E0005E0629C080E061E041E00E945E0623C004
:1014F00080E062E041E00E945E061DC080E063E0A3
:1015000041E00E945E0617C080E064E041E00E9476
:101510005E0611C080E065E041E00E945E060BC0FF
:1015200080E066E041E00E945E0605C080E067E082
:1015300041E00E945E060F900F900F90CF91DF91D7
:101540000895DF93CF9300D00F92CDB7DEB7898394
:101550008981282F30E03B832A838A819B818330D5
:101560009105D9F12A813B81243031057CF48A81AF
:101570009B818130910529F12A813B8122303105FF
:1015800034F58A819B810097B1F044C02A813B8168
:101590002530310571F18A819B81853091051CF1DF
:1015A0002A813B812630310551F18A819B81873028
:1015B000910559F12FC080E060E040E00E945E0696
:1015C00029C080E061E040E00E945E0623C080E028
:1015D00062E040E00E945E061DC080E063E040E003
:1015E0000E945E0617C080E064E040E00E945E0654
:1015F00011C080E065E040E00E945E060BC080E024
:1016000066E040E00E945E0605C080E067E040E0E2
:101610000E945E060F900F900F90CF91DF9108957A
:10162000DF93CF93CDB7DEB780E061E00E949207F1
:1016300081E061E041E00E94A30581E060E041E0DB
:101640000E94A30581E062E041E00E94A3050E94A0
:10165000CA0BCF91DF910895DF93CF93CDB7DEB75B
:101660002F970FB6F894DEBF0FBECDBF8F8781E0F6
:1016700062E041E00E945E0681E061E040E00E949D
:101680005E0681E060E040E00E945E0680E06F85DB
:101690000E940B0881E062E040E00E945E0680E06C
:1016A00090E0A0E0B0E48B879C87AD87BE876B8518
:1016B0007C858D859E8520E030E04AEF54E40E94D1
:1016C0001F02DC01CB018F839887A987BA876F81BE
:1016D000788589859A8520E030E040E85FE30E94C4
:1016E000790388232CF481E090E09E838D833FC0B2
:1016F0006F81788589859A8520E03FEF4FE757E431
:101700000E94190318164CF56B857C858D859E8586
:1017100020E030E040E251E40E941F02DC01CB01F6
:10172000BC01CD010E944900DC01CB019E838D8369
:101730000FC088EC90E09C838B838B819C81019708
:10174000F1F79C838B838D819E8101979E838D838E
:101750008D819E81009769F714C06F817885898596
:101760009A850E944900DC01CB019E838D838D8187
:101770009E819A83898389819A810197F1F79A835F
:1017800089832F960FB6F894DEBF0FBECDBFCF91E1
:10179000DF910895DF93CF93CDB7DEB7AA970FB649
:1017A000F894DEBF0FBECDBF88E30E942C0B80E013
:1017B00090E0A0E8BFE38FA398A7A9A7BAA76FA15D
:1017C00078A589A59AA520E030E04AEF54E40E946C
:1017D0001F02DC01CB018BA39CA3ADA3BEA36BA115
:1017E0007CA18DA19EA120E030E040E85FE30E9453
:1017F000790388232CF481E090E09AA389A33FC069
:101800006BA17CA18DA19EA120E03FEF4FE757E4A3
:101810000E94190318164CF56FA178A589A59AA501
:1018200020E030E040E251E40E941F02DC01CB01E5
:10183000BC01CD010E944900DC01CB019AA389A320
:101840000FC088EC90E098A38F8F8F8D98A101979F
:10185000F1F798A38F8F89A19AA101979AA389A3E1
:1018600089A19AA1009769F714C06BA17CA18DA1F1
:101870009EA10E944900DC01CB019AA389A389A102
:101880009AA19E8F8D8F8D8D9E8D0197F1F79E8FE2
:101890008D8F8CE00E942C0B80E090E0A0E8BFE3ED
:1018A000898F9A8FAB8FBC8F698D7A8D8B8D9C8D34
:1018B00020E030E04AEF54E40E941F02DC01CB013B
:1018C0008D8B9E8BAF8BB88F6D897E898F89988D1C
:1018D00020E030E040E85FE30E94790388232CF4A5
:1018E00081E090E09C8B8B8B3FC06D897E898F89D6
:1018F000988D20E03FEF4FE757E40E941903181638
:101900004CF5698D7A8D8B8D9C8D20E030E040E226
:1019100051E40E941F02DC01CB01BC01CD010E94F9
:101920004900DC01CB019C8B8B8B0FC088EC90E0D5
:101930009A8B898B89899A890197F1F79A8B898B80
:101940008B899C8901979C8B8B8B8B899C890097B9
:1019500069F714C06D897E898F89988D0E9449002E
:10196000DC01CB019C8B8B8B8B899C89988B8F871F
:101970008F8598890197F1F7988B8F8781E00E9476
:101980002C0B80E090E0A0E0B0E48B879C87AD87D3
:10199000BE876B857C858D859E8520E030E04AEF93
:1019A00054E40E941F02DC01CB018F839887A98732
:1019B000BA876F81788589859A8520E030E040E894
:1019C0005FE30E94790388232CF481E090E09E83FA
:1019D0008D833FC06F81788589859A8520E03FEFB0
:1019E0004FE757E40E94190318164CF56B857C8568
:1019F0008D859E8520E030E040E251E40E941F0288
:101A0000DC01CB01BC01CD010E944900DC01CB010E
:101A10009E838D830FC088EC90E09C838B838B81A9
:101A20009C810197F1F79C838B838D819E81019727
:101A30009E838D838D819E81009769F714C06F818D
:101A4000788589859A850E944900DC01CB019E83B7
:101A50008D838D819E819A83898389819A81019763
:101A6000F1F79A83898386E00E942C0BAA960FB621
:101A7000F894DEBF0FBECDBFCF91DF910895DF9305
:101A8000CF93CDB7DEB76D970FB6F894DEBF0FBE1C
:101A9000CDBF8D8F81E062E041E00E945E0681E073
:101AA00060E041E00E945E0681E061E040E00E946B
:101AB0005E0680E06D8D0E940B0881E062E040E0F0
:101AC0000E945E0680E090E0A0ECB0E4898F9A8FDF
:101AD000AB8FBC8F698D7A8D8B8D9C8D20E030E033
:101AE0004AEF54E40E941F02DC01CB018D8B9E8BD8
:101AF000AF8BB88F6D897E898F89988D20E030E01B
:101B000040E85FE30E94790388232CF481E090E0B1
:101B10009C8B8B8B3FC06D897E898F89988D20E04F
:101B20003FEF4FE757E40E94190318164CF5698DF3
:101B30007A8D8B8D9C8D20E030E040E251E40E9454
:101B40001F02DC01CB01BC01CD010E944900DC0178
:101B5000CB019C8B8B8B0FC088EC90E09A8B898B90
:101B600089899A890197F1F79A8B898B8B899C894E
:101B700001979C8B8B8B8B899C89009769F714C08C
:101B80006D897E898F89988D0E944900DC01CB0187
:101B90009C8B8B8B8B899C89988B8F878F85988961
:101BA0000197F1F7988B8F8781E062E041E00E9416
:101BB0005E0680E090E0A0E3B1E48B879C87AD8770
:101BC000BE876B857C858D859E8520E030E04AEF61
:101BD00054E40E941F02DC01CB018F839887A98700
:101BE000BA876F81788589859A8520E030E040E862
:101BF0005FE30E94790388232CF481E090E09E83C8
:101C00008D833FC06F81788589859A8520E03FEF7D
:101C10004FE757E40E94190318164CF56B857C8535
:101C20008D859E8520E030E040E251E40E941F0255
:101C3000DC01CB01BC01CD010E944900DC01CB01DC
:101C40009E838D830FC088EC90E09C838B838B8177
:101C50009C810197F1F79C838B838D819E810197F5
:101C60009E838D838D819E81009769F714C06F815B
:101C7000788589859A850E944900DC01CB019E8385
:101C80008D838D819E819A83898389819A81019731
:101C9000F1F79A8389836D960FB6F894DEBF0FBE75
:101CA000CDBFCF91DF910895DF93CF93CDB7DEB74E
:101CB00061970FB6F894DEBF0FBECDBF998B888BAE
:101CC0001F8680C08F85282F30E088899989FC0184
:101CD000E20FF31F80810E943F0D8F858F5F8F87FA
:101CE00080E090E0A0ECB0E48B879C87AD87BE8756
:101CF0006B857C858D859E8520E030E04AEF54E43D
:101D00000E941F02DC01CB018F839887A987BA87C5
:101D10006F81788589859A8520E030E040E85FE32F
:101D20000E94790388232CF481E090E09E838D83C8
:101D30003FC06F81788589859A8520E03FEF4FE726
:101D400057E40E94190318164CF56B857C858D8528
:101D50009E8520E030E040E251E40E941F02DC0159
:101D6000CB01BC01CD010E944900DC01CB019E8367
:101D70008D830FC088EC90E09C838B838B819C814A
:101D80000197F1F79C838B838D819E8101979E83C0
:101D90008D838D819E81009769F714C06F8178854E
:101DA00089859A850E944900DC01CB019E838D8341
:101DB0008D819E819A83898389819A810197F1F728
:101DC0009A8389838F85282F30E088899989FC013F
:101DD000E20FF31F8081882309F074CF61960FB65C
:101DE000F894DEBF0FBECDBFCF91DF910895DF9392
:101DF000CF93CDB7DEB72E970FB6F894DEBF0FBEE8
:101E0000CDBF81E062E041E00E945E0681E061E0DA
:101E100040E00E945E0681E060E040E00E945E06D5
:101E200080E061E00E940B0881E062E040E00E94F7
:101E30005E0680E090E0A0E0B0E48B879C87AD87F1
:101E4000BE876B857C858D859E8520E030E04AEFDE
:101E500054E40E941F02DC01CB018F839887A9877D
:101E6000BA876F81788589859A8520E030E040E8DF
:101E70005FE30E94790388232CF481E090E09E8345
:101E80008D833FC06F81788589859A8520E03FEFFB
:101E90004FE757E40E94190318164CF56B857C85B3
:101EA0008D859E8520E030E040E251E40E941F02D3
:101EB000DC01CB01BC01CD010E944900DC01CB015A
:101EC0009E838D830FC088EC90E09C838B838B81F5
:101ED0009C810197F1F79C838B838D819E81019773
:101EE0009E838D838D819E81009769F714C06F81D9
:101EF000788589859A850E944900DC01CB019E8303
:101F00008D838D819E819A83898389819A810197AE
:101F1000F1F79A8389832E960FB6F894DEBF0FBE31
:101F2000CDBFCF91DF910895DF93CF9300D000D044
:101F30000F92CDB7DEB78A836B838A81282F30E07A
:101F40003D832C838C819D81009731F02C813D81D4
:101F50002130310521F006C08B81898303C08B813C
:101F6000805C8983898180580E942C0B0F900F9090
:101F70000F900F900F90CF91DF9108950F931F93C3
:101F8000DF93CF93CDB7DEB72F970FB6F894DEBFB0
:101F90000FBECDBF6C877D878E879F878C859D8583
:101FA000AE85BF850097A105B10521F480E30E94AD
:101FB0003F0D4DC019822EC08981082F10E08C85FD
:101FC0009D85AE85BF852AE030E040E050E0BC0151
:101FD000CD010E943412DC01CB01282F205DCE01FF
:101FE0000296FC01E00FF11F20838C859D85AE8554
:101FF000BF852AE030E040E050E0BC01CD010E9406
:102000003412DA01C9018C879D87AE87BF87898129
:102010008F5F89838C859D85AE85BF850097A105DF
:10202000B10551F611C08981882F90E09C012150A3
:102030003040CE010296FC01E20FF31F80810E9426
:102040003F0D8981815089838981882361F72F968B
:102050000FB6F894DEBF0FBECDBFCF91DF911F91B9
:102060000F910895DF93CF9300D000D00F92CDB79A
:10207000DEB789838981282F30E03D832C838C81D2
:102080009D8183309105D9F12C813D81243031052A
:102090007CF48C819D818130910529F12C813D81D9
:1020A0002230310534F58C819D810097B1F044C018
:1020B0002C813D812530310571F18C819D818530E8
:1020C00091051CF12C813D812630310551F18C8127
:1020D0009D818730910559F12FC083E060E040E099
:1020E0000E94A30529C083E061E040E00E94A305AF
:1020F00023C080E062E040E00E94A3051DC080E0B4
:1021000063E040E00E94A30517C080E064E040E087
:102110000E94A30511C080E065E040E00E94A30595
:102120000BC080E066E040E00E94A30505C080E0AF
:1021300067E040E00E94A3058981282F30E03B83BF
:102140002A838A819B8183309105D9F12A813B8141
:10215000243031057CF48A819B818130910529F1FD
:102160002A813B812230310534F58A819B81009799
:10217000B1F044C02A813B812530310571F18A815B
:102180009B81853091051CF12A813B8126303105E8
:1021900051F18A819B818730910559F12FC083E0ED
:1021A00060E041E00E945E0629C083E061E041E01A
:1021B0000E945E0623C080E062E041E00E945E066D
:1021C0001DC080E063E041E00E945E0617C080E031
:1021D00064E041E00E945E0611C080E065E041E0FD
:1021E0000E945E060BC080E066E041E00E945E0651
:1021F00005C080E067E041E00E945E060F900F900E
:102200000F900F900F90CF91DF910895DF93CF93B0
:10221000CDB7DEB763970FB6F894DEBF0FBECDBF64
:10222000898B8989282F30E03B8B2A8B8A899B896F
:1022300083309105D9F12A893B89243031057CF41A
:102240008A899B898130910529F12A893B8922302D
:10225000310534F58A899B890097B1F044C02A89F9
:102260003B892530310571F18A899B89853091053B
:102270001CF12A893B892630310551F18A899B89D5
:102280008730910559F12FC083E060E00E94190763
:10229000888B29C083E061E00E941907888B23C0E6
:1022A00080E062E00E941907888B1DC080E063E037
:1022B0000E941907888B17C080E064E00E9419070C
:1022C000888B11C080E065E00E941907888B0BC0E5
:1022D00080E066E00E941907888B05C080E067E017
:1022E0000E941907888B80E090E0A0EAB1E48B8718
:1022F0009C87AD87BE876B857C858D859E8520E01C
:1023000030E04AEF54E40E941F02DC01CB018F83CE
:102310009887A987BA876F81788589859A8520E013
:1023200030E040E85FE30E94790388232CF481E0E9
:1023300090E09E838D833FC06F81788589859A85E3
:1023400020E03FEF4FE757E40E94190318164CF5C1
:102350006B857C858D859E8520E030E040E251E4F0
:102360000E941F02DC01CB01BC01CD010E9449008B
:10237000DC01CB019E838D830FC088EC90E09C83B1
:102380008B838B819C810197F1F79C838B838D815B
:102390009E8101979E838D838D819E81009769F731
:1023A00014C06F81788589859A850E944900DC0177
:1023B000CB019E838D838D819E819A8389838981C0
:1023C0009A810197F1F79A8389838889882319F480
:1023D00081E08F8701C01F868F8563960FB6F894C2
:1023E000DEBF0FBECDBFCF91DF910895DF93CF93B6
:1023F00000D000D00F92CDB7DEB783E060E040E0C0
:102400000E94A30583E061E041E00E94A30583E010
:1024100067E041E00E94A3050E94FD0880E690E08D
:102420009B838A838A819B810E9454090E943B0975
:1024300089838981282F30E03D832C838C819D8185
:102440008033910559F02C813D812133310571F79D
:1024500083E067E041E00E945E06E8CF83E067E04A
:1024600040E00E945E06E2CFA1E21A2EAA1BBB1B2F
:10247000FD010DC0AA1FBB1FEE1FFF1FA217B30750
:10248000E407F50720F0A21BB30BE40BF50B661F66
:10249000771F881F991F1A9469F76095709580952A
:1024A00090959B01AC01BD01CF0108952F923F9201
:1024B0004F925F926F927F928F929F92AF92BF9254
:1024C000CF92DF92EF92FF920F931F93CF93DF9300
:1024D000CDB7DEB7CA1BDB0B0FB6F894DEBF0FBE5D
:1024E000CDBF09942A88398848885F846E847D84AA
:1024F0008C849B84AA84B984C884DF80EE80FD80AC
:102500000C811B81AA81B981CE0FD11D0FB6F89421
:0E251000DEBF0FBECDBFED010895F894FFCFE2
:10251E0048656C6C6F20576F7264210000000000DC
:04252E0000000000A9
:00000001FF
